{
  "contractName": "Election",
  "abi": [
    {
      "inputs": [],
      "stateMutability": "nonpayable",
      "type": "constructor"
    },
    {
      "anonymous": false,
      "inputs": [
        {
          "indexed": false,
          "internalType": "uint256",
          "name": "candidateId",
          "type": "uint256"
        }
      ],
      "name": "AddCandidate",
      "type": "event"
    },
    {
      "anonymous": false,
      "inputs": [
        {
          "indexed": false,
          "internalType": "uint256",
          "name": "winnerId",
          "type": "uint256"
        },
        {
          "indexed": false,
          "internalType": "uint256",
          "name": "winnerVotes",
          "type": "uint256"
        }
      ],
      "name": "AnnounceElectionResults",
      "type": "event"
    },
    {
      "anonymous": false,
      "inputs": [
        {
          "indexed": true,
          "internalType": "address",
          "name": "newOwner",
          "type": "address"
        }
      ],
      "name": "OwnerSet",
      "type": "event"
    },
    {
      "anonymous": false,
      "inputs": [
        {
          "indexed": true,
          "internalType": "uint256",
          "name": "candidateId",
          "type": "uint256"
        }
      ],
      "name": "VoteInElection",
      "type": "event"
    },
    {
      "inputs": [
        {
          "internalType": "uint32",
          "name": "",
          "type": "uint32"
        }
      ],
      "name": "candidates",
      "outputs": [
        {
          "internalType": "uint32",
          "name": "candidateId",
          "type": "uint32"
        },
        {
          "internalType": "string",
          "name": "candidateName",
          "type": "string"
        },
        {
          "internalType": "string",
          "name": "candidateParty",
          "type": "string"
        },
        {
          "internalType": "uint256",
          "name": "votesReceived",
          "type": "uint256"
        }
      ],
      "stateMutability": "view",
      "type": "function",
      "constant": true
    },
    {
      "inputs": [],
      "name": "candidatesCount",
      "outputs": [
        {
          "internalType": "uint32",
          "name": "",
          "type": "uint32"
        }
      ],
      "stateMutability": "view",
      "type": "function",
      "constant": true
    },
    {
      "inputs": [
        {
          "internalType": "address",
          "name": "",
          "type": "address"
        }
      ],
      "name": "voters",
      "outputs": [
        {
          "internalType": "address",
          "name": "voterAddress",
          "type": "address"
        },
        {
          "internalType": "uint32",
          "name": "voterId",
          "type": "uint32"
        },
        {
          "internalType": "bool",
          "name": "hasVoted",
          "type": "bool"
        }
      ],
      "stateMutability": "view",
      "type": "function",
      "constant": true
    },
    {
      "inputs": [],
      "name": "votersCount",
      "outputs": [
        {
          "internalType": "uint32",
          "name": "",
          "type": "uint32"
        }
      ],
      "stateMutability": "view",
      "type": "function",
      "constant": true
    },
    {
      "inputs": [],
      "name": "getNumberOfCandidates",
      "outputs": [
        {
          "internalType": "uint32",
          "name": "",
          "type": "uint32"
        }
      ],
      "stateMutability": "view",
      "type": "function",
      "constant": true
    },
    {
      "inputs": [],
      "name": "getVotersCount",
      "outputs": [
        {
          "internalType": "uint32",
          "name": "",
          "type": "uint32"
        }
      ],
      "stateMutability": "view",
      "type": "function",
      "constant": true
    },
    {
      "inputs": [
        {
          "internalType": "uint32",
          "name": "candidateId",
          "type": "uint32"
        }
      ],
      "name": "getCandidate",
      "outputs": [
        {
          "internalType": "uint256",
          "name": "",
          "type": "uint256"
        },
        {
          "internalType": "string",
          "name": "",
          "type": "string"
        },
        {
          "internalType": "string",
          "name": "",
          "type": "string"
        },
        {
          "internalType": "uint256",
          "name": "",
          "type": "uint256"
        }
      ],
      "stateMutability": "view",
      "type": "function",
      "constant": true
    },
    {
      "inputs": [
        {
          "internalType": "uint32",
          "name": "candidateId",
          "type": "uint32"
        }
      ],
      "name": "getTotalVotes",
      "outputs": [
        {
          "internalType": "uint256",
          "name": "",
          "type": "uint256"
        }
      ],
      "stateMutability": "view",
      "type": "function",
      "constant": true
    },
    {
      "inputs": [
        {
          "internalType": "string",
          "name": "name",
          "type": "string"
        },
        {
          "internalType": "string",
          "name": "party",
          "type": "string"
        }
      ],
      "name": "addCandidate",
      "outputs": [],
      "stateMutability": "nonpayable",
      "type": "function"
    },
    {
      "inputs": [
        {
          "internalType": "uint32",
          "name": "candidateId",
          "type": "uint32"
        }
      ],
      "name": "vote",
      "outputs": [],
      "stateMutability": "nonpayable",
      "type": "function"
    },
    {
      "inputs": [],
      "name": "concludeElection",
      "outputs": [],
      "stateMutability": "nonpayable",
      "type": "function"
    }
  ],
  "bytecode": "0x60806040523480156200001157600080fd5b50336000806101000a81548173ffffffffffffffffffffffffffffffffffffffff021916908373ffffffffffffffffffffffffffffffffffffffff16021790555060008054906101000a900473ffffffffffffffffffffffffffffffffffffffff1673ffffffffffffffffffffffffffffffffffffffff167f50146d0e3c60aa1d17a70635b05494f864e86144a2201275021014fbf08bafe260405160405180910390a2620001316040518060400160405280600c81526020017f446f6e616c64205472756d7000000000000000000000000000000000000000008152506040518060400160405280600b81526020017f52657075626c6963616e73000000000000000000000000000000000000000000815250620001b360201b60201c565b620001ad6040518060400160405280600981526020017f4a6f6520426964656e00000000000000000000000000000000000000000000008152506040518060400160405280600981526020017f44656d6f63726174730000000000000000000000000000000000000000000000815250620001b360201b60201c565b6200065b565b60008054906101000a900473ffffffffffffffffffffffffffffffffffffffff1673ffffffffffffffffffffffffffffffffffffffff163373ffffffffffffffffffffffffffffffffffffffff161462000259576040517f08c379a000000000000000000000000000000000000000000000000000000000815260040180806020018281038252602681526020018062001b1e6026913960400191505060405180910390fd5b6200026a826200044860201b60201c565b620002dd576040517f08c379a00000000000000000000000000000000000000000000000000000000081526004018080602001828103825260188152602001807f43616e64696461746520616c726561647920657869737473000000000000000081525060200191505060405180910390fd5b6003600081819054906101000a900463ffffffff168092919060010191906101000a81548163ffffffff021916908363ffffffff160217905550506040518060800160405280600360009054906101000a900463ffffffff1663ffffffff168152602001838152602001828152602001600081525060016000600360009054906101000a900463ffffffff1663ffffffff1663ffffffff16815260200190815260200160002060008201518160000160006101000a81548163ffffffff021916908363ffffffff1602179055506020820151816001019080519060200190620003c8929190620005b5565b506040820151816002019080519060200190620003e7929190620005b5565b50606082015181600301559050507f777fd7cc2d56d24ad499059c7477d5721244e36ce46e0dac54a339c3578906d8600360009054906101000a900463ffffffff16604051808263ffffffff16815260200191505060405180910390a15050565b600080600090505b600360009054906101000a900463ffffffff1663ffffffff168163ffffffff161015620005aa57826040516020018082805190602001908083835b60208310620004b057805182526020820191506020810190506020830392506200048b565b6001836020036101000a03801982511681845116808217855250505050505090500191505060405160208183030381529060405280519060200120600160008363ffffffff1663ffffffff16815260200190815260200160002060010160405160200180828054600181600116156101000203166002900480156200056f5780601f106200054c5761010080835404028352918201916200056f565b820191906000526020600020905b8154815290600101906020018083116200055a575b50509150506040516020818303038152906040528051906020012014156200059c576000915050620005b0565b808060010191505062000450565b50600190505b919050565b828054600181600116156101000203166002900490600052602060002090601f016020900481019282601f10620005f857805160ff191683800117855562000629565b8280016001018555821562000629579182015b82811115620006285782518255916020019190600101906200060b565b5b5090506200063891906200063c565b5090565b5b80821115620006575760008160009055506001016200063d565b5090565b6114b3806200066b6000396000f3fe608060405234801561001057600080fd5b50600436106100a95760003560e01c806398c079381161007157806398c07938146103a3578063a3ec138d146103c7578063c0f2a7771461044b578063cde419a41461046f578063cea0771b14610479578063e8dac59f146104c1576100a9565b806326541b56146100ae5780632abe5a2d146102005780632d35a8a2146103275780637a84d13e1461034b5780639094c7631461036f575b600080fd5b6101fe600480360360408110156100c457600080fd5b81019080803590602001906401000000008111156100e157600080fd5b8201836020820111156100f357600080fd5b8035906020019184600183028401116401000000008311171561011557600080fd5b91908080601f016020809104026020016040519081016040528093929190818152602001838380828437600081840152601f19601f8201169050808301925050505050505091929192908035906020019064010000000081111561017857600080fd5b82018360208201111561018a57600080fd5b803590602001918460018302840111640100000000831117156101ac57600080fd5b91908080601f016020809104026020016040519081016040528093929190818152602001838380828437600081840152601f19601f8201169050808301925050505050505091929192905050506105ee565b005b6102326004803603602081101561021657600080fd5b81019080803563ffffffff169060200190929190505050610874565b604051808581526020018060200180602001848152602001838103835286818151815260200191508051906020019080838360005b83811015610282578082015181840152602081019050610267565b50505050905090810190601f1680156102af5780820380516001836020036101000a031916815260200191505b50838103825285818151815260200191508051906020019080838360005b838110156102e85780820151818401526020810190506102cd565b50505050905090810190601f1680156103155780820380516001836020036101000a031916815260200191505b50965050505050505060405180910390f35b61032f610a33565b604051808263ffffffff16815260200191505060405180910390f35b610353610a49565b604051808263ffffffff16815260200191505060405180910390f35b6103a16004803603602081101561038557600080fd5b81019080803563ffffffff169060200190929190505050610a63565b005b6103ab610d13565b604051808263ffffffff16815260200191505060405180910390f35b610409600480360360208110156103dd57600080fd5b81019080803573ffffffffffffffffffffffffffffffffffffffff169060200190929190505050610d29565b604051808473ffffffffffffffffffffffffffffffffffffffff1681526020018363ffffffff1681526020018215158152602001935050505060405180910390f35b610453610d90565b604051808263ffffffff16815260200191505060405180910390f35b610477610daa565b005b6104ab6004803603602081101561048f57600080fd5b81019080803563ffffffff169060200190929190505050610fce565b6040518082815260200191505060405180910390f35b6104f3600480360360208110156104d757600080fd5b81019080803563ffffffff169060200190929190505050611075565b604051808563ffffffff1681526020018060200180602001848152602001838103835286818151815260200191508051906020019080838360005b8381101561054957808201518184015260208101905061052e565b50505050905090810190601f1680156105765780820380516001836020036101000a031916815260200191505b50838103825285818151815260200191508051906020019080838360005b838110156105af578082015181840152602081019050610594565b50505050905090810190601f1680156105dc5780820380516001836020036101000a031916815260200191505b50965050505050505060405180910390f35b60008054906101000a900473ffffffffffffffffffffffffffffffffffffffff1673ffffffffffffffffffffffffffffffffffffffff163373ffffffffffffffffffffffffffffffffffffffff1614610692576040517f08c379a000000000000000000000000000000000000000000000000000000000815260040180806020018281038252602681526020018061142c6026913960400191505060405180910390fd5b61069b826111e5565b61070d576040517f08c379a00000000000000000000000000000000000000000000000000000000081526004018080602001828103825260188152602001807f43616e64696461746520616c726561647920657869737473000000000000000081525060200191505060405180910390fd5b6003600081819054906101000a900463ffffffff168092919060010191906101000a81548163ffffffff021916908363ffffffff160217905550506040518060800160405280600360009054906101000a900463ffffffff1663ffffffff168152602001838152602001828152602001600081525060016000600360009054906101000a900463ffffffff1663ffffffff1663ffffffff16815260200190815260200160002060008201518160000160006101000a81548163ffffffff021916908363ffffffff16021790555060208201518160010190805190602001906107f692919061138e565b50604082015181600201908051906020019061081392919061138e565b50606082015181600301559050507f777fd7cc2d56d24ad499059c7477d5721244e36ce46e0dac54a339c3578906d8600360009054906101000a900463ffffffff16604051808263ffffffff16815260200191505060405180910390a15050565b6000606080600084600160008763ffffffff1663ffffffff168152602001908152602001600020600101600160008863ffffffff1663ffffffff168152602001908152602001600020600201600160008963ffffffff1663ffffffff168152602001908152602001600020600301548363ffffffff169350828054600181600116156101000203166002900480601f0160208091040260200160405190810160405280929190818152602001828054600181600116156101000203166002900480156109815780601f1061095657610100808354040283529160200191610981565b820191906000526020600020905b81548152906001019060200180831161096457829003601f168201915b50505050509250818054600181600116156101000203166002900480601f016020809104026020016040519081016040528092919081815260200182805460018160011615610100020316600290048015610a1d5780601f106109f257610100808354040283529160200191610a1d565b820191906000526020600020905b815481529060010190602001808311610a0057829003601f168201915b5050505050915093509350935093509193509193565b600360009054906101000a900463ffffffff1681565b6000600360009054906101000a900463ffffffff16905090565b60008163ffffffff16118015610a975750600360009054906101000a900463ffffffff1663ffffffff168163ffffffff1611155b8015610af05750600260003373ffffffffffffffffffffffffffffffffffffffff1673ffffffffffffffffffffffffffffffffffffffff16815260200190815260200160002060000160189054906101000a900460ff16155b610b62576040517f08c379a00000000000000000000000000000000000000000000000000000000081526004018080602001828103825260128152602001807f496e76616c69642043616e64696461746521000000000000000000000000000081525060200191505060405180910390fd5b60006003600481819054906101000a900463ffffffff168092919060010191906101000a81548163ffffffff021916908363ffffffff1602179055509050600160008363ffffffff1663ffffffff1681526020019081526020016000206003016000815480929190600101919050555060405180606001604052803373ffffffffffffffffffffffffffffffffffffffff1681526020018263ffffffff16815260200160011515815250600260003373ffffffffffffffffffffffffffffffffffffffff1673ffffffffffffffffffffffffffffffffffffffff16815260200190815260200160002060008201518160000160006101000a81548173ffffffffffffffffffffffffffffffffffffffff021916908373ffffffffffffffffffffffffffffffffffffffff16021790555060208201518160000160146101000a81548163ffffffff021916908363ffffffff16021790555060408201518160000160186101000a81548160ff0219169083151502179055509050508163ffffffff167faacb8b941c8d77dd3eb9de4f9cc4a1181c42fa7f496aa1ca70f4ee1456670a0860405160405180910390a25050565b600360049054906101000a900463ffffffff1681565b60026020528060005260406000206000915090508060000160009054906101000a900473ffffffffffffffffffffffffffffffffffffffff16908060000160149054906101000a900463ffffffff16908060000160189054906101000a900460ff16905083565b6000600360049054906101000a900463ffffffff16905090565b60008054906101000a900473ffffffffffffffffffffffffffffffffffffffff1673ffffffffffffffffffffffffffffffffffffffff163373ffffffffffffffffffffffffffffffffffffffff1614610e4e576040517f08c379a000000000000000000000000000000000000000000000000000000000815260040180806020018281038252602681526020018061142c6026913960400191505060405180910390fd5b6001600360009054906101000a900463ffffffff1663ffffffff1611610ebf576040517f08c379a000000000000000000000000000000000000000000000000000000000815260040180806020018281038252602c815260200180611452602c913960400191505060405180910390fd5b6000806000600190505b600360009054906101000a900463ffffffff1663ffffffff168163ffffffff1611610f7c576000610f2b600160008463ffffffff1663ffffffff16815260200190815260200160002060000160009054906101000a900463ffffffff16610fce565b905082811115610f6e57600160008363ffffffff1663ffffffff16815260200190815260200160002060000160009054906101000a900463ffffffff1693508092505b508080600101915050610ec9565b507fd18d15f68bc0b3812b8908e3f8b113ee4c233641905850a42d0134d9c33d9ec58282604051808363ffffffff1681526020018281526020019250505060405180910390a1610fca611348565b5050565b6000808263ffffffff161161104b576040517f08c379a00000000000000000000000000000000000000000000000000000000081526004018080602001828103825260148152602001807f496e76616c69642063616e64696461746520494400000000000000000000000081525060200191505060405180910390fd5b600160008363ffffffff1663ffffffff168152602001908152602001600020600301549050919050565b60016020528060005260406000206000915090508060000160009054906101000a900463ffffffff1690806001018054600181600116156101000203166002900480601f0160208091040260200160405190810160405280929190818152602001828054600181600116156101000203166002900480156111375780601f1061110c57610100808354040283529160200191611137565b820191906000526020600020905b81548152906001019060200180831161111a57829003601f168201915b505050505090806002018054600181600116156101000203166002900480601f0160208091040260200160405190810160405280929190818152602001828054600181600116156101000203166002900480156111d55780601f106111aa576101008083540402835291602001916111d5565b820191906000526020600020905b8154815290600101906020018083116111b857829003601f168201915b5050505050908060030154905084565b600080600090505b600360009054906101000a900463ffffffff1663ffffffff168163ffffffff16101561133d57826040516020018082805190602001908083835b6020831061124a5780518252602082019150602081019050602083039250611227565b6001836020036101000a03801982511681845116808217855250505050505090500191505060405160208183030381529060405280519060200120600160008363ffffffff1663ffffffff16815260200190815260200160002060010160405160200180828054600181600116156101000203166002900480156113055780601f106112e3576101008083540402835291820191611305565b820191906000526020600020905b8154815290600101906020018083116112f1575b5050915050604051602081830303815290604052805190602001201415611330576000915050611343565b80806001019150506111ed565b50600190505b919050565b6000600360006101000a81548163ffffffff021916908363ffffffff1602179055506000600360046101000a81548163ffffffff021916908363ffffffff160217905550565b828054600181600116156101000203166002900490600052602060002090601f016020900481019282601f106113cf57805160ff19168380011785556113fd565b828001600101855582156113fd579182015b828111156113fc5782518255916020019190600101906113e1565b5b50905061140a919061140e565b5090565b5b8082111561142757600081600090555060010161140f565b509056fe596f7520617265206e6f7420746865206f776e6572206f662074686520456c656374696f6e2143616e6e6f7420636f6e636c75646520656c656374696f6e2077697468206f6e652063616e64696461746521a2646970667358221220b43b167508f7bb4dae2e88b195fa151f672aa6e54c9d3146e5631a5d9d0d8a7964736f6c63430007000033596f7520617265206e6f7420746865206f776e6572206f662074686520456c656374696f6e21",
  "immutableReferences": {},
  "source": "// SPDX-License-Identifier: MIT\npragma solidity >=0.6.6 <0.8.0;\n\ncontract Election {\n    struct Ballot {\n        uint32 ballotId;\n        mapping(uint32 => bytes32) candidateBallot;\n    }\n    \n    struct Candidate {\n        uint32 candidateId;\n        string candidateName;\n        string candidateParty;\n        uint256 votesReceived;\n    }\n\n    struct Voter {\n        address voterAddress;\n        uint32 voterId;\n        bool hasVoted;\n    }\n\n    address private owner;\n    modifier isOwner {\n        require(msg.sender == owner, \"You are not the owner of the Election!\");\n        _;\n    }\n\n    mapping (uint32 => Candidate) public candidates;\n    mapping (address => Voter) public voters;\n    uint32 public candidatesCount;\n    uint32 public votersCount;\n    \n    event OwnerSet(address indexed newOwner);\n    event AddCandidate(uint candidateId);\n    event VoteInElection(uint256 indexed candidateId);\n    event AnnounceElectionResults(uint256 winnerId, uint256 winnerVotes);\n    \n    constructor() {\n        owner = msg.sender;\n        emit OwnerSet(owner);\n        addCandidate(\"Donald Trump\", \"Republicans\");\n        addCandidate(\"Joe Biden\", \"Democrats\");\n    }\n\n    function resetElectionState() private {\n        candidatesCount = 0;\n        votersCount = 0;\n    }\n    \n    function getNumberOfCandidates() external view returns(uint32) {\n        return candidatesCount;\n    }\n    \n    function getVotersCount() external view returns(uint32) {\n        return votersCount;\n    }\n    \n    function getCandidate(uint32 candidateId) public view returns(uint256, string memory, string memory, uint256) {\n        return (candidateId, candidates[candidateId].candidateName, candidates[candidateId].candidateParty, candidates[candidateId].votesReceived);\n    }\n\n    function getTotalVotes(uint32 candidateId) view public returns (uint256) {\n        require(candidateId > 0, \"Invalid candidate ID\");\n        return candidates[candidateId].votesReceived;\n    }\n    \n    function addCandidate(string memory name, string memory party) isOwner public {\n        require(checkForUniqueCandidate(name), \"Candidate already exists\");\n        candidatesCount++;\n        candidates[candidatesCount] = Candidate(candidatesCount, name, party, 0);\n        emit AddCandidate(candidatesCount);\n    }\n\n    function checkForUniqueCandidate(string memory name) view private returns (bool){\n        for(uint32 i = 0; i < candidatesCount; i++) {\n            if(keccak256(abi.encodePacked(candidates[i].candidateName)) == keccak256(abi.encodePacked(name))) {\n                return false;\n            }\n        }\n        return true;\n    }\n    \n    function vote(uint32 candidateId) public {\n        // require(!voters[msg.sender], \"Candidate has already voted!\");\n        require(candidateId > 0 && candidateId <= candidatesCount && !voters[msg.sender].hasVoted\n            , \"Invalid Candidate!\");\n\n        uint32 voterId = votersCount++;\n        candidates[candidateId].votesReceived++;\n        voters[msg.sender] = Voter(msg.sender, voterId, true);\n        emit VoteInElection(candidateId);\n    }\n\n    function concludeElection() isOwner public{\n        require(candidatesCount > 1, \"Cannot conclude election with one candidate!\");\n    \n        uint32 winnerId = 0;\n        uint256 winnerVotesReceived = 0;\n\n        for(uint32 i = 1; i <= candidatesCount; i++) {\n            uint256 temp = getTotalVotes(candidates[i].candidateId);\n            if(temp > winnerVotesReceived) {\n                winnerId = candidates[i].candidateId;\n                winnerVotesReceived = temp;\n            }\n        }\n\n        emit AnnounceElectionResults(winnerId, winnerVotesReceived);\n        resetElectionState();\n    }\n}",
  "sourcePath": "/Users/tsvetoslavvasev/Developer/e-voting/E-voting/contracts/E-Voting.sol",
  "compiler": {
    "name": "solc",
    "version": "0.7.0+commit.9e61f92b.Emscripten.clang"
  },
  "schemaVersion": "3.3.4",
  "updatedAt": "2021-02-14T14:30:27.381Z",
  "networkType": "ethereum",
  "devdoc": {
    "kind": "dev",
    "methods": {},
    "version": 1
  },
  "userdoc": {
    "kind": "user",
    "methods": {},
    "version": 1
  }
}